:020000040800F2
:10000000008001207D2F00083D23000845230008C3
:100010006523000885230008A523000800000000D0
:10002000000000000000000000000000C5230008E0
:10003000D123000800000000DD230008E9230008A8
:10004000C52F0008C52F0008C52F0008C52F0008C0
:10005000C52F0008C52F0008C52F0008C52F0008B0
:10006000C52F0008C52F0008C52F0008C52F0008A0
:10007000C52F0008C52F0008C52F0008F52300086C
:1000800009240008C52F0008C52F0008C52F000847
:10009000C52F0008C52F0008C52F0008C52F000870
:1000A000C52F00081D240008C52F0008C52F000813
:1000B000C52F00083124000845240008C52F00087A
:1000C000C52F0008C52F0008C52F0008C52F000840
:1000D000C52F0008592400086D2400088124000859
:1000E000C52F0008C52F0008C52F0008C52F000820
:1000F000C52F0008C52F0008C52F0008C52F000810
:10010000C52F0008C52F0008C52F0008C52F0008FF
:1001100095240008A9240008C52F0008C52F000851
:10012000C52F0008C52F0008BD240008C52F0008F2
:1001300000000000000000000000000000000000BF
:1001400000000000000000000000000000000000AF
:10015000000000000000000000000000000000009F
:10016000000000000000000000000000000000008F
:10017000000000000000000000000000000000007F
:10018000000000000000000000000000000000006F
:10019000000000000000000000000000000000005F
:1001A000000000000000000000000000000000004F
:1001B000000000000000000000000000000000003F
:1001C000000000000000000000000000000000002F
:1001D000000000000000000000000000000000001F
:0401E0005FF8E0F1F3
:1001E40010B5054C237833B9044B13B10448AFF36D
:1001F40000800123237010BD700000200000000067
:10020400A89B000808B5034B1BB103490348AFF38F
:10021400008008BD0000000074000020A89B0008B6
:1002240080B500AF0B4B1B78002B02D0012B0BD0F9
:100234000DE0094804F0FEFE0021084805F010F81E
:10024400044B01221A7002E000F040F800BF00BF26
:1002540080BD00BF8C000020740200200403002035
:1002640080B500AF0249022008F0A8FC00BF80BDA1
:100274001518000880B400AF024B1846BD4680BC78
:10028400704700BFDC01002080B400AF024B184669
:10029400BD4680BC704700BFE001002080B400AFC1
:1002A400034B93F925301846BD4680BC704700BF08
:1002B4009000002080B400AF034B93F83C30184604
:1002C400BD4680BC704700BF9000002080B500AFE1
:1002D40001F042FC074B93F83A30002B02D0012B7B
:1002E40003D005E000F008F802E000F027FD00BFAD
:1002F40000BF80BD9000002080B500AF6E4B93F826
:100304003B301A2B00F2D58001A252F823F000BF33
:1003140081030008B7040008A5030008B704000817
:10032400BB030008B7040008D1030008B7040008A1
:10033400E7030008B7040008FD030008B704000839
:1003440013040008B704000829040008B7040008CF
:100354003F040008B704000855040008B704000867
:100364006B040008B704000881040008B7040008FF
:1003740097040008B7040008AD040008002001F049
:10038400EBF901F001FA4C4B012283F82A204A4B85
:10039400FF2283F82520484B012283F83B2088E084
:1003A400464800F07BFE002000F0D4FE424B0322BE
:1003B40083F83B207DE0414800F070FE012000F00E
:1003C400C9FE3D4B052283F83B2072E03B4800F018
:1003D40065FE022000F0BEFE374B072283F83B2067
:1003E40067E0364800F05AFE032000F0B3FE324BBB
:1003F400092283F83B205CE0304800F04FFE0420E3
:1004040000F0A8FE2C4B0B2283F83B2051E02B4834
:1004140000F044FE052000F09DFE274B0D2283F8DA
:100424003B2046E0254800F039FE062000F092FE0D
:10043400214B0F2283F83B203BE0204800F02EFEA6
:10044400072000F087FE1C4B112283F83B2030E08C
:100454001A4800F023FE082000F07CFE164B1322FD
:1004640083F83B2025E0154800F018FE092000F031
:1004740071FE114B152283F83B201AE00F4800F05F
:100484000DFE0A2000F066FE0B4B172283F83B207A
:100494000FE00A4800F002FE0B2000F05BFE064B62
:1004A400192283F83B2004E0034B012283F83A200D
:1004B40000BF00BF80BD00BF90000020C20000202C
:1004C40090B5C5B000AF07F58873A3F586731860BF
:1004D4000A4607F58873A3F20D131A7007F588739B
:1004E400A3F582731846FF231A46002108F02BFD5A
:1004F40007F58873A3F20D131B785B0887F80C319A
:10050400002387F80F312FE097F80F315B001A466C
:1005140007F58873A3F586731B6813441B780021C1
:10052400184601F047F903461C4697F80F315B0063
:10053400013307F58872A2F58672126813441B789A
:100544000121184601F036F903461A4697F80F318F
:100554002243D1B207F58872A2F58272D15497F87A
:100564000F31013387F80F3197F80F2197F80C31C9
:100574009A42C9D307F58873A3F582731A78BA4BE4
:1005840093F82A309A420AD007F58873A3F5827348
:100594005A78B54B9B8DDBB29A4240F0C28397F8F0
:1005A4000C319AB207F10C031146184601F03EFBD8
:1005B40007F58873A3F582735B78102B00F097839B
:1005C400102B00F3B583032B03D0062B00F0E2803D
:1005D400AEE3A54BDB8DB3F5197F00F0BD80B3F519
:1005E400197F00F3A083B3F50F7F00F09F80B3F56C
:1005F4000F7F00F39883B3F5AC7F67D0B3F5AC7F7E
:1006040000F39183122B00F0BD80222B00D08AE3EB
:10061400954B1B8E012B57D00A2B00D0B9E0924B7F
:1006240001225A70002387F80E3107F58873A3F569
:1006340082731B79002B05D097F80E3143F0010328
:1006440087F80E3107F58873A3F582731B7A0B2B99
:1006540005D097F80E3143F0020387F80E3107F501
:100664008873A3F582731B7B072B05D097F80E3193
:1006740043F0040387F80E3107F58873A3F58273FA
:100684001B7C032B05D097F80E3143F0080387F841
:100694000E3107F58873A3F582731B7D002B05D0FB
:1006A40097F80E3143F0100387F80E3197F80E31A6
:1006B400002B04D06C4B042283F83B2005E06A4BEA
:1006C4000E2283F83B2000E000BF62E0664B1B8EE5
:1006D400042B59D1002387F80D3107F58873A3F54E
:1006E40082731B79A02B05D097F80D3143F00103D9
:1006F40087F80D3107F58873A3F582731B7A5E2B97
:1007040005D097F80D3143F0020387F80D3197F8BF
:100714000D31002B04D0544B102283F83B2003E00E
:10072400514B122283F83B2000BF2DE04E4B1B8E11
:10073400012B2BD107F58873A3F582731B79052B45
:1007440004D1494B1A2283F83B2003E0464B18227C
:1007540083F83B2000BF19E0434B1B8E012B17D1BC
:1007640007F58873A3F582731B79112B04D13E4BD3
:10077400162283F83B2003E03B4B142283F83B20F2
:1007840000BF05E000BFCEE200BFCCE200BFCAE27A
:1007940000BFC8E2344BDB8D40F20A42934200F0C2
:1007A400F28040F20A42934200F3BF82B3F5197F0C
:1007B40000F0E480B3F5197F00F3B782B3F50F7F3F
:1007C40000F0D780B3F50F7F00F3AF8240F216221A
:1007D400934200F09A8040F21622934200F3A582DD
:1007E400B3F5057F5ED0B3F5057F00F39E822A2B17
:1007F4001CDC222BC0F29982223B082B00F295824A
:1008040001A252F823F000BF390800082F0D000898
:10081400430800082F0D00084D0800082F0D00089C
:10082400570800082F0D000861080008B3F5817F00
:100834001CD07AE20C4B062283F83B2056E20A4B8A
:10084400082283F83B2051E2074B0A2283F83B201D
:100854004CE2054B0C2283F83B2047E2024B022278
:1008640083F83B2042E200BF90000020C04B93F885
:100874003C30172B40F0378207F58873A3F5827359
:100884001B791B0207F58872A2F582725279134311
:10089400042B01D1182200E01622B54B83F83C202A
:1008A40000BF20E2B24B93F83C30052B02D0192B49
:1008B40015D01BE207F58873A3F582731B791B021D
:1008C40007F58872A2F5827252791343012B01D184
:1008D400062200E00422A64B83F83C2014E007F52E
:1008E4008873A3F582731B791B0207F58872A2F53E
:1008F400827252791343012B01D11A2200E018228B
:100904009B4B83F83C2000BFF0E1994B93F83C30BB
:10091400132B02D0152B15D0E8E107F58873A3F546
:1009240082731B791B0207F58872A2F582725279D1
:100934001343042B01D1142200E010228C4B83F8C2
:100944003C2015E007F58873A3F582731B791B021D
:1009540007F58872A2F5827252791343B3F5827F48
:1009640001D1162200E01422814B83F83C2000BF01
:10097400BCE17F4B162283F83B20B7E17C4B12226B
:1009840083F83B20B2E17A4B93F83C30033B1A2BBB
:1009940000F2AB8101A252F823F000BF0D0A000857
:1009A400EF0C0008EF0C0008EF0C0008370A0008F1
:1009B400EF0C0008610A0008EF0C0008D50A0008D3
:1009C400EF0C0008FF0A0008EF0C0008790B000880
:1009D400EF0C0008A30B0008EF0C0008CD0B000877
:1009E400EF0C0008EF0C0008EF0C0008EF0C0008F7
:1009F400EF0C0008EF0C0008EF0C00083F0C000897
:100A0400EF0C0008690C000807F58873A3F58273DE
:100A14001B79002B08D107F58873A3F582735B79E2
:100A2400002B01D1042200E00222514B83F83C2028
:100A340058E107F58873A3F582731B79002B08D15D
:100A440007F58873A3F582735B79142B01D108220F
:100A540000E00622464B83F83C2043E1444B93F9E3
:100A64002530012B16D107F58873A3F582731B7902
:100A74001B0207F58872A2F582725279134341F280
:100A84008632934201D10A2200E00822384B83F8CF
:100A94003C2020E1364B93F92530B3F1FF3F40F081
:100AA4001A8107F58873A3F582731B791B0207F576
:100AB4008872A2F582725279134341F287329342CB
:100AC40001D10A2200E00822294B83F83C2002E1EC
:100AD40007F58873A3F582731B79002B08D107F5FA
:100AE4008873A3F582735B79002B01D10C2200E09B
:100AF4000A221F4B83F83C20F4E01D4B93F9253068
:100B0400012B16D107F58873A3F582731B791B0299
:100B140007F58872A2F582725279134341F2873243
:100B2400934201D10E2200E00C22114B83F83C20A9
:100B3400D3E00F4B93F92530B3F1FF3F40F0CD8064
:100B440007F58873A3F582731B791B0207F5887276
:100B5400A2F582725279134341F28632934201D153
:100B64000E2200E00C22024B83F83C20B5E000BFCB
:100B74009000002007F58873A3F582731B79002B7E
:100B840008D107F58873A3F582735B79002B01D133
:100B9400102200E00E22684B83F83C20A2E007F507
:100BA4008873A3F582731B791B0207F58872A2F57B
:100BB400827252791343042B01D1122200E01022D5
:100BC4005D4B83F83C208DE05B4B93F92530012B82
:100BD40016D107F58873A3F582731B791B0207F5F9
:100BE4008872A2F582725279134341F2863293429B
:100BF40001D1142200E012224F4B83F83C206EE016
:100C04004D4B93F92530B3F1FF3F68D107F5887355
:100C1400A3F582731B791B0207F58872A2F5827211
:100C24005279134341F28732934201D1142200E0F6
:100C34001222414B83F83C2051E007F58873A3F559
:100C440082731B79002B08D107F58873A3F582738F
:100C54005B79002B01D11C2200E01A22364B83F869
:100C64003C203FE0344B93F92530012B16D107F596
:100C74008873A3F582731B791B0207F58872A2F5AA
:100C840082725279134341F28732934201D11E2278
:100C940000E01C22284B83F83C2022E0264B93F9E9
:100CA4002530B3F1FF3F1CD107F58873A3F5827398
:100CB4001B791B0207F58872A2F5827252791343DD
:100CC40041F28632934201D11E2200E01C221A4BCB
:100CD40083F83C2005E000BF07E000BF05E000BF4B
:100CE40003E000BF01E000BF1FE000BF1DE0124BA6
:100CF400DB8DB3F5AC7F1AD10F4B1B8E042B0ED1B9
:100D040007F58873A3F582735B791A460A4B1B8E29
:100D14009A4203D1084B0E2283F83B2000BF00BF48
:100D240005E000BF04E000BF02E000BF00E000BF38
:100D340007F58A77BD4690BD9000002080B500AFCE
:100D4400964B93F83C301C2B00F2258101A252F8FB
:100D540023F000BFCD0D0008E10D0008030E0008CC
:100D64009B0F00081B0E00089B0F0008330E0008A1
:100D74009B0F00084B0E00089B0F0008870E00080D
:100D84009B0F0008AD0E00089B0F0008E90E000839
:100D94009B0F00080F0F00089B0F00089B0F000813
:100DA4009B0F0008270F00089B0F0008410F000845
:100DB400510F0008610F00089B0F0008710F000815
:100DC4009B0F0008810F0008744B9B78002B40F0A8
:100DD400DD80724B012283F83C20D7E00221704869
:100DE40003F09CFA0346002B04D16C4B022283F8D7
:100DF4003C20D0E0694B022283F83C20CBE06948D8
:100E040000F04CF90021032000F054F9634B032255
:100E140083F83C20BFE0634800F040F90121012041
:100E240000F048F95D4B052283F83C20B3E05D48AF
:100E340000F034F91421032000F03CF9574B072249
:100E440083F83C20A7E0574800F028F9534B93F966
:100E54002530012B05D141F28631032000F02AF917
:100E64000AE04E4B93F92530B3F1FF3F04D141F230
:100E74008731032000F01EF9484B092283F83C20F7
:100E840089E00221464803F049FA0346012B7FD149
:100E9400444800F003F90021032000F00BF93F4B14
:100EA4000B2283F83C2073E03E4800F0F7F83B4BFC
:100EB40093F92530012B05D141F28731032000F04D
:100EC400F9F80AE0354B93F92530B3F1FF3F04D12B
:100ED40041F28631032000F0EDF8304B0D2283F807
:100EE4003C2058E002212E4803F018FA0346002B58
:100EF40050D12C4800F0D2F80021032000F0DAF899
:100F0400264B0F2283F83C2044E0264800F0C6F824
:100F14000421042000F0CEF8204B132283F83C2057
:100F240039E0204800F0BAF84FF48271042000F050
:100F3400C1F81A4B152283F83C202CE0194800F024
:100F4400ADF8164B162283F83C2024E0154800F037
:100F5400A5F8124B162283F83C201CE0114800F03F
:100F64009DF80E4B192283F83C2014E00D4800F044
:100F740095F80A4B1B2283F83C200CE0094800F04A
:100F84008DF8064B1D2283F83C2004E000BF02E0EC
:100F940000BF00E000BF00BF80BD00BF9000002084
:100FA40000100140C400002080B500AF012000F013
:100FB40091FD394B93F83B30012B13D1364B5B8EAB
:100FC40001339AB2344B5A86334B5B8E41F28732EB
:100FD40093425ED9304B00225A862F4B022283F86B
:100FE4003B2056E02C4B93F83B30032B3BD02A4B51
:100FF40093F83B30052B36D0274B93F83B30072B27
:1010040031D0254B93F83B30092B2CD0224B93F84D
:101014003B300B2B27D0204B93F83B300D2B22D0A9
:101024001D4B93F83B300F2B1DD01B4B93F83B30DB
:10103400112B18D0184B93F83B30132B13D0164BAD
:1010440093F83B30152B0ED0134B93F83B30172BF2
:1010540009D0114B93F83B30192B04D00E4B93F865
:101064003B301B2B15D10C4B5B8E01339AB20A4BD0
:101074005A86094B5B8EB3F57A7F0AD3064B00225E
:101084005A86054B93F83B30013BDAB2024B83F8A6
:101094003B2000BF80BD00BF9000002080B483B01F
:1010A40000AF78607B6800221A8000BF0C37BD4611
:1010B40080BC704780B584B002AF03460A46FB711A
:1010C4001346BB80FB79042B3DD801A252F823F0D0
:1010D400E9100008FB1000080F1100082311000894
:1010E400371100081A4B0093002312220A2103200F
:1010F40000F02EFA27E0BB88154A00924FF40572DF
:101104000021062000F024FA1DE0BB88104A00925A
:101114004FF481720021062000F01AFA13E0BB8814
:101124000B4A009240F20A420021062000F010FA15
:1011340009E0BB88064A009240F2162200210620EC
:1011440000F006FA00BF00BF0837BD4680BD00BFEF
:10115400D000002080B586B002AF0346FB71FB7956
:101164000B2B00F2958001A252F823F0A111000884
:10117400B3110008C5110008D7110008E9110008CF
:10118400FB1100080D120008211200084512000886
:10119400591200086D120008811200083E4B00939A
:1011A400002322220A21032000F0D2F970E03A4BF6
:1011B4000093002322220021062000F0C9F967E0F1
:1011C400354B00930B2324220021062000F0C0F9A4
:1011D4005EE0314B0093072326220021062000F015
:1011E400B7F955E02C4B0093032328220021062055
:1011F40000F0AEF94CE0284B009300232A22002192
:10120400062000F0A5F943E0234B009300234FF49C
:10121400AC720421032000F09BF939E01F4A07F166
:10122400080392E8030083E8030007F1080300932E
:1012340000234FF4AC720421102000F089F927E058
:10124400154B009300234FF419720121032000F081
:101254007FF91DE0104B009311234FF41972002104
:10126400062000F075F913E00B4B009300234FF4B4
:101274000F720121032000F06BF909E0064B009383
:1012840005234FF40F720021062000F061F900BF1E
:1012940000BF1037BD4680BDD0000020C09B0008B1
:1012A40080B485B000AF78600B46FB700023FB81EF
:1012B4000023BB720023BB810023FB720AE0FB7A8C
:1012C4007A6813441B781A46FB891344FB81FB7A22
:1012D4000133FB72FA7AFB789A42F0D3FB89DBB2D2
:1012E4005B42BB72BB7A1B097B72BB7A03F00F03B0
:1012F4003B727B7A092B0CD87B7A9BB230339BB23E
:101304001BB21B021AB2B7F90C3013431BB2BB81D8
:1013140011E07B7A092B0ED97B7A0F2B0BD87B7AC1
:101324009BB237339BB21BB21B021AB2B7F90C3013
:1013340013431BB2BB813B7A092B0AD83B7A9BB27D
:1013440030339BB21AB2B7F90C3013431BB2BB81D2
:101354000FE03B7A092B0CD93B7A0F2B09D83B7A47
:101364009BB237339BB21AB2B7F90C3013431BB29A
:10137400BB81BB8918461437BD4680BC704780B515
:10138400C4B000AF07F58873A3F5867318600A46E6
:1013940007F58873A3F20D131A7007F58873A3F584
:1013A40084731846FF231A46002107F0CCFD07F585
:1013B4008873A3F20D131B785B00DBB2053387F847
:1013C4000E3107F58873A3F20D131A7807F58873A5
:1013D400A3F5867311461868FFF762FF0346A7F862
:1013E4000C3107F58873A3F584733A221A70B7F8A1
:1013F4000C311B0A9AB297F80E31043BD1B207F5AF
:101404008872A2F58472D15497F80E31033BB7F871
:101414000C21D1B207F58872A2F58472D15497F8E1
:101424000E31023B07F58872A2F584720D21D15466
:1014340097F80E31013B07F58872A2F584720A21F0
:10144400D154002387F80F316BE097F80F3107F57B
:101454008872A2F58672126813441B781B0987F8F8
:101464000B3197F80F3107F58872A2F5867212686E
:1014740013441B7803F00F0387F80A3197F80B31F4
:10148400092B0DD897F80F315B00013397F80B2126
:101494003032D1B207F58872A2F58472D15414E0C7
:1014A40097F80B31092B10D997F80B310F2B0CD867
:1014B40097F80F315B00013397F80B213732D1B223
:1014C40007F58872A2F58472D15497F80A31092B72
:1014D4000DD897F80F3101335B0097F80A213032A9
:1014E400D1B207F58872A2F58472D15414E097F84A
:1014F4000A31092B10D997F80A310F2B0CD897F819
:101504000F3101335B0097F80A213732D1B207F566
:101514008872A2F58472D15497F80F31013387F899
:101524000F3107F58873A3F20D1397F80F211B7879
:101534009A428AD397F80E319AB207F108031146FA
:10154400184600F081FA00BF07F58877BD4680BDD4
:10155400B0B5C4B000AF05460C461046194607F5B1
:101564008873A3F209132A461A7007F58873A3F542
:10157400857322461A7007F58873A3F586730246AD
:101584001A8007F58873A3F587730A461A8007F54E
:101594008873A3F582731846FF231A46002107F0C7
:1015A400D2FC002387F80F316A4B93F82A2007F501
:1015B4008873A3F582731A7007F58873A3F5827391
:1015C40007F58872A2F2091212785A7007F5887327
:1015D400A3F586731B881B0A9BB2DAB207F58873DE
:1015E400A3F582739A7007F58873A3F586731B8835
:1015F400DAB207F58873A3F58273DA7007F5887396
:10160400A3F209131B78102B37D0102B00F39D8005
:10161400032B02D0062B14D097E0062387F80F3152
:1016240007F58873A3F5827300221A7107F588738E
:10163400A3F5827307F58872A2F5857212785A7140
:1016440063E0062387F80F3107F58873A3F58773E2
:101654001B881B0A9BB2DAB207F58873A3F5827361
:101664001A7107F58873A3F587731B88DAB207F537
:101674008873A3F582735A7147E007F58873A3F55D
:1016840085731B785B00DBB2073387F80F3107F5EE
:101694008873A3F5827300221A7107F58873A3F582
:1016A400827307F58872A2F5857212785A7107F56C
:1016B4008873A3F585731B785B00DAB207F588732A
:1016C400A3F582739A71002387F80E3112E097F81C
:1016D4000E31D7F820211A4497F80E3107331178C8
:1016E40007F58872A2F58272D15497F80E3101334E
:1016F40087F80E3197F80E2107F58873A3F58573E3
:101704001B785B009A42E2DB00BF07F58873A3F203
:1017140009131B789AB20F4B9A850E4A07F5887302
:10172400A3F586731B88D38507F58873A3F58573A2
:101734001B789AB2074B1A8697F80F2107F10C030E
:1017440011461846FFF71BFE00E000BF07F5887737
:10175400BD46B0BD9000002080B582B000AF034606
:10176400FB71FB791A464FF48071054802F0EDFDD8
:10177400044B00221A7000BF0837BD4680BD00BF6D
:10178400000801409000002080B500AF0122034909
:10179400034804F05EFF00BF80BD00BFD4000020FA
:1017A4002404002080B500AF00F0E6F8FFF7ECFF5A
:1017B40000BF80BD80B485B000AF03460A46FB710C
:1017C4001346BB71FB792F2B06D9FB79392B03D830
:1017D400FB79303BFB7308E0FB79402B05D9FB799F
:1017E400462B02D8FB79373BFB73BB79002B03D123
:1017F400FB7B1B01DBB205E0BB79012B01D1FB7B39
:1018040000E0002318461437BD4680BC7047000032
:1018140090B5ADF5037D00AF002387F806320023B1
:1018240087F8053207F58273FF21184600F020F986
:10183400034687F8063297F806325B0887F80532C4
:10184400002387F807322AE097F807325B0007F590
:101854000272A2F58272D35C00211846FFF7AAFF38
:1018640003461C4697F807325B00013307F5027202
:10187400A2F58272D35C01211846FFF79BFF034651
:101884001A4697F807322243D1B207F50272A2F53D
:101894000172D15497F80732013387F8073297F869
:1018A400072297F805329A42CED307F50273A3F5BF
:1018B40001731A782B4B93F82A309A4212D007F509
:1018C4000273A3F501735A78264B9B8DDBB29A42BF
:1018D40008D001F0CFFB0346234A1946234807F0FA
:1018E400DDFA3AE007F50273A3F501735B78102B78
:1018F40032D0102B31DC032B02D0062B1DD02CE070
:1019040007F50273A3F50173DA78194B1A7007F51A
:101914000273A3F501731A79154B5A7007F5027314
:10192400A3F501735A79124B9A7007F50273A3F564
:1019340001739A790E4BDA700FE007F50273A3F581
:1019440001731A790B4B1A7007F50273A3F501732F
:101954005A79084B5A7000E000BF07F50377BD467B
:1019640090BD00BF9000002094A40008C89B00080C
:10197400E0010020DC01002080B500AF2B4B1B7878
:10198400022B08D12A4B1B780D2B01D1032200E036
:101994000122264B1A70254B1B78042B44D801A234
:1019A40052F823F0BD190008CD190008EB190008FE
:1019B400031A00081F1A00081D4B1B783A2B30D15C
:1019C4001A4B01221A702CE01A4B1B785A1CD1B204
:1019D400184A11701A46164B1978174B9954134B21
:1019E40002221A7020E0134B1B785A1CD1B2114A00
:1019F40011701A460E4B19780F4B995414E00B4B87
:101A040004221A700D4B93F83C30152B0BD9FFF7B9
:101A1400FFFE0B4B01225A7205E00A4B01221A7099
:101A240002E000BF00E000BF00BF80BDD80100207D
:101A3400D4000020D5000020D80000209000002011
:101A4400AC090020D701002080B582B000AF7860D7
:101A54000B467B807A884FF47A737968034804F0E4
:101A640075FD00BF0837BD4680BD00BF24040020BB
:101A740080B485B000AF78600B46FB70124B1B78C6
:101A8400FA789A4202D9104B1B78FB700023FB733F
:101A940009E0FA7BFB7B79680B440C498A5C1A7079
:101AA400FB7B0133FB73FA7BFB789A42F1D3064B41
:101AB40000221A70064B00221A70FB78184614375D
:101AC400BD4680BC704700BFD5000020D800002070
:101AD400D801002080B483B000AF0346FB71194BDA
:101AE4001B78002B26D0184B1A78164B1B789A4279
:101AF40007D0144B1A78144B1A70144B00221A7026
:101B04001BE0124B1B78092B17D8104B1A78FB7962
:101B14001344DAB20D4B1A700C4B1B78092B0CD9F9
:101B2400084B00221A700A4B00221A70094B01223A
:101B34001A7002E0044B00221A7000BF0C37BD4635
:101B440080BC7047D5000020E4010020E50100209E
:101B5400D8010020D701002080B5C0B000AF07F540
:101B64008073A3F580731846FF231A46002107F0FB
:101B7400EAF90D4B1B78002B11D00B4B00221A7085
:101B84003B46FF211846FFF773FF034687F8FF30F3
:101B940097F8FF203B4611461846FEF791FC00BF1C
:101BA40007F58077BD4680BDD701002080B582B09F
:101BB40000AF78607B681B68044A934201D1FFF749
:101BC400F1FD00BF0837BD4680BD00BF00440040A2
:101BD40080B582B000AF78600B467B8006F0E4FEEF
:101BE40002467B68934202D106F0ACFF07E006F0A0
:101BF400A1FD02467B68934201D106F063FE00BF5B
:101C04000837BD4680BD000080B582B000AF786063
:101C14007B681B68044A934201D1FFF7C5F900BFF2
:101C24000837BD4680BD00BF002C014080B582B09E
:101C340000AF78600B467B807A884FF47A737968BA
:101C4400034804F083FC00BF0837BD4680BD00BFD5
:101C54004C03002080B584B000AF3B1D00221A6005
:101C64005A609A60184B194A1A60174B00229A60FE
:101C7400154B00221A73144B00221A75124B4FF4A1
:101C84006022DA61104B00225A600F4B01221A6164
:101C94000D4801F0F9F90346002B01D000F013FBC5
:101CA40005237B600123BB600023FB603B1D1946B9
:101CB400054801F0D3FA0346002B01D000F003FBE2
:101CC40000BF1037BD4680BDE8010020002401405C
:101CD40080B588B000AF786007F1100300221A6065
:101CE4005A609A60DA607B681B68144A934221D177
:101CF400134B9B69124A43F400739361104B9B6925
:101D040003F40073FB60FB680D4B9B690C4A43F0C2
:101D1400040393610A4B9B6903F00403BB60BB6833
:101D2400B0233B6103237B6107F110031946054887
:101D340002F060F900BF2037BD4680BD0024014099
:101D4400001002400008014080B582B000AF1A4B79
:101D54005B69194A43F001035361174B5B6903F054
:101D640001037B607B68144B5B69134A43F00203F5
:101D74005361114B5B6903F002033B603B68002233
:101D840000210F2001F07BFC0F2001F094FC0022C5
:101D94000021102001F073FC102001F08CFC0022C3
:101DA40000213A2001F06BFC3A2001F084FC00BFD2
:101DB4000837BD4680BD00BF0010024080B588B022
:101DC40000AF07F1100300221A605A609A60DA60CB
:101DD400444B9B69434A43F010039361414B9B6915
:101DE40003F01003FB60FB683E4B9B693D4A43F0E4
:101DF400200393613B4B9B6903F02003BB60BB68EA
:101E0400384B9B69374A43F004039361354B9B6914
:101E140003F004037B607B68324B9B69314A43F0D7
:101E2400080393612F4B9B6903F008033B603B68F5
:101E340000224FF408512C4802F087FA01220121B4
:101E4400294802F082FA00224FF41461274802F074
:101E54007CFA01224FF41041244802F076FA002261
:101E64001821234802F071FA42F201233B61012355
:101E74007B610023BB610223FB6107F11003194658
:101E8400194802F0B7F84FF4E1733B6100237B611A
:101E94000023BB6107F110031946134802F0AAF8A6
:101EA40049F640133B6101237B610023BB6102239C
:101EB400FB6107F1100319460C4802F09BF8182344
:101EC4003B6101237B610023BB610223FB6107F1BA
:101ED40010031946064802F08DF800BF2037BD46AE
:101EE40080BD00BF00100240001001400008014006
:101EF400000C014080B500AF124B134A1A60114B1D
:101F0400124A5A600F4B00229A600E4B0022DA608C
:101F14000C4B4FF480421A610A4B00225A61094B60
:101F240000229A61074B0022DA61064B00221A62F2
:101F3400044802F023FA0346002B01D000F0C3F951
:101F440000BF80BD1802002000540040A08601009C
:101F540080B58AB000AF786007F1140300221A60DC
:101F64005A609A60DA607B681B681D4A934232D1DA
:101F74001C4B9B691B4A43F008039361194B9B69F3
:101F840003F008033B613B694FF440737B61122308
:101F9400BB6103233B6207F114031946124802F0A4
:101FA40029F8124B5B687B627B6A43F0E0637B62D7
:101FB4007B6A43F002037B620C4A7B6A5360094BE1
:101FC400DB69084A43F40013D361064BDB6903F46D
:101FD4000013FB60FB6800BF2837BD4680BD00BF0F
:101FE4000054004000100240000C01400000014079
:101FF40080B582B000AF00F0E5FF00F007F9FFF70D
:10200400DDFEFFF7A1FE00F0F7FC00F01FFD00F07D
:1020140047FD00F06FFD00F097FDFFF71BFEFFF793
:1020240069FF00F0ABFB00F0FFFA00F04DFB6A49DA
:102034006A4806F083FC06F095FC6949694806F095
:1020440043FB06F055FBFEF70BF906F01BFEFEF70B
:10205400E7F8FEF72FF90346152BF6DD05F0A0FE91
:1020640006F098F80346012B1CD15F4B1B78002B1C
:1020740018D15E4B1B78012B05D0FF2B12D15B4B83
:1020840001221A700EE00C211E2006F06BF90346A3
:10209400002B06D01E210C2006F098F8524B01228A
:1020A4001A7000BF504B1B78013B042B00F2878051
:1020B40001A252F823F000BFD12000080D2100082E
:1020C40031210008612100089F210008FEF7DCF897
:1020D40003460421184606F0B1F80346BB80BA88CB
:1020E400434B1B689A426CD3BB88FF2B69D03E4B91
:1020F40002221A7000F0BEFF01463B4B1B783D4A9A
:102104003D4806F0CBFE5CE006F07EF90346002B6A
:1021140059D0354B03221A7000F0ACFF0146324B04
:102124001B78344A354806F0B9FE4CE0CC211E2019
:1021340006F018F90346002B47D01E21CC2006F0E8
:1021440045F8294B04221A7000F094FF0146264BEF
:102154001B78284A2A4806F0A1FE36E0FEF794F8D8
:1021640003460421184606F069F80346FB80FA8802
:102174001F4B1B68643B9A4229D8FB88002B26D04E
:10218400194B05221A7000F075FF0146164B1B7897
:10219400184A1C4806F082FE19E006F035F9034699
:1021A400002B16D0104B06221A7000F063FF014674
:1021B4000D4B1B780F4A144806F070FE09E000BF6F
:1021C40043E700BF41E700BF3FE700BF3DE700BF73
:1021D4003BE700BF39E700BFF8040020DC03002020
:1021E400B40400204C0300206C02002000000020F6
:1021F40004000020A8A400081C9C0008489C0008B7
:102204006C9C0008949C0008C09C000880B596B0A3
:1022140000AF07F1300328220021184606F093FE90
:1022240007F11C0300221A605A609A60DA601A618E
:102234003B1D00221A605A609A60DA601A615A6182
:1022440001233B634FF480337B630023BB6301238F
:102254003B640223FB644FF480333B654FF48013EB
:102264007B6507F13003184602F0CCF90346002BD6
:1022740001D000F028F80F23FB6102233B62002306
:102284007B624FF48063BB620023FB6207F11C0393
:102294000221184602F038FC0346002B01D000F05E
:1022A40012F802237B604FF40043FB603B1D184689
:1022B40002F0BAFD0346002B01D000F004F800BF81
:1022C4005837BD4680BD80B400AF72B600BF00BFB2
:1022D400FDE7000080B485B000AF154B9B69144A3C
:1022E40043F001039361124B9B6903F00103BB604C
:1022F400BB680F4BDB690E4A43F08053D3610C4B30
:10230400DB6903F080537B607B680A4B5B68FB608E
:10231400FB6823F0E063FB60FB6843F00073FB6041
:10232400044AFB68536000BF1437BD4680BC704745
:10233400001002400000014080B400AF00BFFDE780
:1023440080B500AF00F096FE0346034A19460348E1
:1023540006F0A4FD00BFF5E7B0A40008E49C000863
:1023640080B500AF00F086FE0346034A19460348D1
:1023740006F094FD00BFF5E7C4A400080C9D000816
:1023840080B500AF00F076FE0346034A19460348C1
:1023940006F084FD00BFF5E7D8A40008349D0008CA
:1023A40080B500AF00F066FE0346034A19460348B1
:1023B40006F074FD00BFF5E7ECA400085C9D00087E
:1023C40080B400AF00BFBD4680BC704780B400AF8E
:1023D40000BFBD4680BC704780B400AF00BFBD469F
:1023E40080BC704780B500AF00F032FE00BF80BDF6
:1023F40080B500AF024801F093FB00BF80BD00BF71
:10240400F804002080B500AF024801F089FB00BF4A
:1024140080BD00BF3C05002080B500AF024803F03A
:1024240047F800BF80BD00BF7402002080B500AF34
:10243400024803F03DF800BF80BD00BFBC0200208D
:1024440080B500AF024803F033F800BF80BD00BF81
:102454000403002080B500AF024804F07DF900BFFA
:1024640080BD00BFDC03002080B500AF024804F04B
:1024740073F900BF80BD00BF2404002080B500AF05
:10248400024804F069F900BF80BD00BF6C0400205D
:1024940080B500AF024804F05FF900BF80BD00BF03
:1024A4004C03002080B500AF024804F055F900BF8A
:1024B40080BD00BF9403002080B500AF024801F046
:1024C4002FFB00BF80BD00BFB404002080B483B0E4
:1024D40000AF786000BF0C37BD4680BC704780B544
:1024E40086B000AFF860B9607A6000237B610AE0CF
:1024F400AFF300800146BB685A1CBA60CAB21A70B6
:102504007B6901337B617A697B689A42F0DB7B6883
:1025140018461837BD4680BD80B586B000AFF86058
:10252400B9607A6000237B6109E0BB685A1CBA6019
:102534001B78184605F038FE7B6901337B617A69A4
:102544007B689A42F1DB7B6818461837BD4680BD2C
:1025540080B483B000AF78604FF0FF3318460C3777
:10256400BD4680BC704780B483B000AF78603960EA
:102574003B684FF400525A60002318460C37BD469E
:1025840080BC704780B483B000AF786001231846E4
:102594000C37BD4680BC704780B485B000AFF8608E
:1025A400B9607A60002318461437BD4680BC704772
:1025B40080B586B000AF7860144A154BD31A7B619E
:1025C4007B693B61134B1B68002B02D1114B124AF0
:1025D4001A60104B1A687B6813443A699A4207D20E
:1025E40006F000FD03460C221A604FF0FF3309E0A9
:1025F400084B1B68FB60074B1A687B681344054A49
:102604001360FB6818461837BD4680BD0080012062
:102614000004000070020020300E002080B400AFDF
:1026240000BFBD4680BC704780B586B000AF07F1DF
:10263400080300221A605A609A60DA603B4600225E
:102644001A605A601E4B1F4A1A601D4B47225A607B
:102654001B4B00229A601A4B40F2E732DA60184BA7
:1026640000221A61164B00225A61154B80229A618E
:10267400134802F08FFC0346002B01D0FFF723FE22
:102684004FF48053BB6007F1080319460C4803F06C
:1026940075F90346002B01D0FFF715FE00233B60BC
:1026A40000237B603B461946054803F073FE03464E
:1026B400002B01D0FFF707FE00BF1837BD4680BDD1
:1026C40074020020002C014080B58AB000AF07F1ED
:1026D400200300221A605A603B1D00221A605A60CF
:1026E4009A60DA601A615A619A61224B224A1A602E
:1026F400204B41F61F425A601E4B00229A601D4B2C
:102704000922DA601B4B00221A611A4B00229A61DB
:10271400184802F0FDFC0346002B01D0FFF7D3FD5F
:1027240000233B6200237B6207F120031946114812
:1027340003F030FE0346002B01D0FFF7C4FD6023F5
:102744007B600023BB600023FB6000237B613B1D97
:1027540004221946074803F04FF80346002B01D022
:10276400FFF7B1FD034800F001F900BF2837BD466B
:1027740080BD00BFBC0200200004004080B58AB0C8
:1027840000AF07F1180300221A605A609A60DA60F9
:1027940007F1100300221A605A603B4600221A60B7
:1027A4005A609A60DA602B4B2B4A1A60294B4722F5
:1027B4005A60284B00229A60264B42F20F72DA606C
:1027C400244B00221A61234B80229A61214802F093
:1027D400E1FB0346002B01D0FFF775FD4FF4805356
:1027E400BB6107F1180319461A4803F0C7F80346FA
:1027F400002B01D0FFF767FD164802F0D8FC034612
:10280400002B01D0FFF75FFD00233B6100237B61B8
:1028140007F1100319460F4803F0BCFD0346002BD3
:1028240001D0FFF750FD00233B6001237B600023B0
:10283400BB600023FB603B4600221946054802F0BA
:102844003FFF0346002B01D0FFF73DFD00BF2837B3
:10285400BD4680BD040300200008004080B58AB056
:1028640000AF786007F1180300221A605A609A607A
:10287400DA607B681B68264A934214D1254B9B6916
:10288400244A43F400639361224B9B6903F400637D
:102894007B617B6900220121192000F0F0FE1920E0
:1028A40000F009FF30E07B681B681B4A93422BD180
:1028B400184BDB69174A43F00403D361154BDB69FA
:1028C40003F004033B613B69124B9B69114A43F0DB
:1028D400080393610F4B9B6903F00803FB60FB68DB
:1028E4004023BB610023FB6100233B6207F1180313
:1028F40019460A4801F07EFB002200211E2000F048
:10290400BEFE1E2000F0D7FE00BF2837BD4680BDA6
:10291400002C01400010024000080040000C01405F
:1029240080B584B000AF78607B681B680D4A934221
:1029340013D10D4BDB690C4A43F00203D3610A4BFC
:10294400DB6903F00203FB60FB68002200211D2009
:1029540000F095FE1D2000F0AEFE00BF1037BD460E
:1029640080BD00BF000400400010024080B588B064
:1029740000AF786007F10C0300221A605A609A6075
:10298400DA607B681B68184A934229D1174B9B690C
:10299400164A43F008039361144B9B6903F0080340
:1029A400BB60BB682023FB6002233B610223BB6145
:1029B40007F10C0319460E4801F01CFB0D4B5B6834
:1029C400FB61FB6923F44063FB61FB6943F0E06353
:1029D400FB61FB6943F40063FB61064AFB695360D6
:1029E40000BF2037BD4680BD0004004000100240F7
:1029F400000C01400000014080B500AF114B124AA9
:102A04001A60104B4FF461325A600E4B00229A60E8
:102A14000C4B0022DA600B4B00221A61094B0C228A
:102A24005A61084B00229A61064B0022DA6105487C
:102A340003F03CFD0346002B01D0FFF744FC00BF2C
:102A440080BD00BF4C030020004C004080B500AFA7
:102A5400114B124A1A60104B4FF461325A600E4BFC
:102A640000229A600C4B0022DA600B4B00221A61A0
:102A7400094B0C225A61084B00229A61064B002232
:102A8400DA61054803F012FD0346002B01D0FFF77D
:102A94001AFC00BF80BD00BF94030020005000401A
:102AA40080B500AF114B124A1A60104B4FF4165206
:102AB4005A600E4B00229A600C4B0022DA600B4BDA
:102AC40000221A61094B0C225A61084B00229A61B8
:102AD400064B0022DA61054803F0E8FC0346002BAC
:102AE40001D0FFF7F0FB00BF80BD00BFDC03002076
:102AF4000038014080B500AF114B124A1A60104BE8
:102B04004FF416425A600E4B00229A600C4B00227E
:102B1400DA600B4B00221A61094B0C225A61084BF4
:102B240000229A61064B0022DA61054803F0BEFCDC
:102B34000346002B01D0FFF7C6FB00BF80BD00BFDA
:102B4400240400200044004080B500AF114B124A19
:102B54001A60104B4FF4E1325A600E4B00229A6017
:102B64000C4B0022DA600B4B00221A61094B0C2239
:102B74005A61084B00229A61064B0022DA6105482B
:102B840003F094FC0346002B01D0FFF79CFB00BF2D
:102B940080BD00BF6C0400200048004080B592B0A6
:102BA40000AF786007F1380300221A605A609A6017
:102BB400DA607B681B688A4A934260D1894BDB697F
:102BC400884A43F40023D361864BDB6903F4002372
:102BD4007B637B6B834B9B69824A43F01003936155
:102BE400804B9B6903F010033B633B6B4FF48063A2
:102BF400BB630223FB6303237B6407F13803194699
:102C0400794801F0F7F94FF40063BB630023FB63D9
:102C140000233B6407F138031946734801F0EAF9CD
:102C2400724B734A1A60714B00225A606F4B002238
:102C34009A606E4B8022DA606C4B00221A616B4BF7
:102C440000225A61694B00229A61684B0022DA61C2
:102C5400664800F04BFD0346002B01D0FFF733FB21
:102C64007B68624ADA63614A7B685362002200210E
:102C7400342000F004FD342000F01DFD69E17B6880
:102C84001B685C4A934245D1564BDB69554A43F471
:102C94008013D361534BDB6903F48013FB62FB6A3B
:102CA400504B9B694F4A43F0100393614D4B9B6912
:102CB40003F01003BB62BB6A4A4B9B69494A43F069
:102CC40020039361474B9B6903F020037B627B6A7B
:102CD4004FF48053BB630223FB6303237B6407F13C
:102CE40038031946404801F085F90423BB630023E7
:102CF400FB6300233B6407F1380319463E4801F0A7
:102D040079F900220021352000F0B9FC352000F0CB
:102D1400D2FC1EE17B681B68384A934276D1314B62
:102D24009B69304A43F4804393612E4B9B6903F4BF
:102D340080433B623B6A2B4B9B692A4A43F0040362
:102D44009361284B9B6903F00403FB61FB694FF417
:102D54000073BB630223FB6303237B6407F1380323
:102D64001946274801F046F94FF48063BB630023FA
:102D7400FB6300233B6407F138031946204801F044
:102D840039F9204B204A1A601E4B00225A601D4B11
:102D940000229A601B4B8022DA601A4B00221A61CF
:102DA400184B00225A61174B00229A61154B0022DE
:102DB400DA61144800F09AFC0346002B01D0FFF7B7
:102DC40082FA7B680F4ADA630E4A7B6853620022F8
:102DD4000021252000F053FC252000F06CFCB8E015
:102DE400004C00400010024000100140B4040020D8
:102DF40030040240005000400014014000380140FB
:102E040000080140F8040020580002407B681B6859
:102E1400524A93425ED1524BDB69514A43F4003328
:102E2400D3614F4BDB6903F40033BB61BB694C4B8B
:102E34009B694B4A43F004039361494B9B6903F03C
:102E440004037B617B690423BB630223FB630323C9
:102E54007B6407F138031946424801F0CBF8082394
:102E6400BB630023FB6300233B6407F1380319466B
:102E74003C4801F0BFF83C4B3C4A1A603A4B0022F4
:102E84005A60394B00229A60374B8022DA60364B05
:102E940000221A61344B00225A61334B00229A619A
:102EA400314B0022DA61304800F020FC0346002B4D
:102EB40001D0FFF708FA7B682B4ADA632A4A7B6859
:102EC400536200220021262000F0D9FB262000F0C6
:102ED400F2FB3EE07B681B68254A934239D1204BC4
:102EE400DB691F4A43F48023D3611D4BDB6903F480
:102EF40080233B613B691A4B9B69194A43F00803E1
:102F04009361174B9B6903F00803FB60FB684FF464
:102F14008063BB630223FB6303237B6407F13803F1
:102F24001946144801F066F84FF40063BB630023AC
:102F3400FB6300233B6407F1380319460D4801F095
:102F440059F800220021272000F099FB272000F0E7
:102F5400B2FB00BF4837BD4680BD00BF00440040FF
:102F640000100240000801403C0500206C000240B3
:102F740000480040000C0140FFF750FB0B480C498F
:102F84000C4A002302E0D458C4500433C4188C42C1
:102F9400F9D3094A094C002301E013600432A24228
:102FA400FBD306F025F8FFF723F870470000002054
:102FB4007000002004A70008700000202C0E0020E0
:102FC400FEE7000080B500AF084B1B68074A43F0DA
:102FD40010031360032000F047FB0F2000F008F8F3
:102FE400FFF778F90023184680BD00BF0020024097
:102FF40080B582B000AF7860124B1A68124B1B7810
:1030040019464FF47A73B3FBF1F3B2FBF3F31846AA
:1030140000F05FFB0346002B01D001230EE07B6828
:103024000F2B0AD8002279684FF0FF3000F027FBFD
:10303400064A7B681360002300E001231846083722
:10304400BD4680BD08000020100000200C000020B8
:1030540080B400AF054B1B781A46054B1B6813441C
:10306400034A136000BFBD4680BC704710000020B7
:103074008005002080B400AF024B1B681846BD4693
:1030840080BC70478005002080B586B000AF7860B2
:103094000023FB7500233B610023BB600023FB601E
:1030A4007B68002B01D10123CEE07B689B68002B59
:1030B4007B689B6A002B09D17B680022DA627B68FB
:1030C400002283F824207868FEF702FE786800F076
:1030D400BDF90346FB757B689B6A03F01003002B64
:1030E40040F0A980FB7D002B40F0A5807B689B6AA3
:1030F40023F4885323F0020343F002027B689A62AC
:103104007B685A687B681B6851498B420AD17B688B
:10311400DB69B3F5402F02D07B68DB6904E04FF430
:10312400002301E07B68DB691A437B681B7B5B003F
:103134001343BA681343BB607B689B68B3F5807F15
:1031440003D07B689B68012B02D14FF4807300E0AD
:1031540000233A6913433B617B681B7D012B19D122
:103164007B681B7B002B09D17B689B69013B5A035D
:103174003B69134343F400633B610BE07B689B6A48
:1031840043F020027B689A627B68DB6A43F00102A9
:103194007B68DA627B681B685B6823F469417B683F
:1031A4001B683A690A435A607B681B689A68294B12
:1031B40013407A681268B9680B4393607B689B6814
:1031C400B3F5807F03D07B689B68012B04D17B68B7
:1031D4001B69013B1B05FB607B681B68DB6A23F4EE
:1031E40070017B681B68FA680A43DA627B681B68B3
:1031F4009A68194B1340BA689A420BD17B68002233
:10320400DA627B689B6A23F0030343F001027B6864
:103214009A6218E07B689B6A23F0120343F0100261
:103224007B689A627B68DB6A43F001027B68DA623E
:103234000123FB7507E07B689B6A43F010027B68FF
:103244009A620123FB75FB7D18461837BD4680BD85
:10325400003C0140FDF7E1FFFE0E1FFF80B485B086
:1032640000AF786039600023FB730023BB607B6888
:1032740093F82430012B01D10223DCE07B68012286
:1032840083F824203B685B68062B1CD87B681B688A
:10329400596B3B685A6813469B001344053B1F2235
:1032A40002FA03F3DB4319403B6818683B685A6829
:1032B40013469B001344053B00FA03F27B681B682A
:1032C4000A435A633CE03B685B680C2B1CD87B6860
:1032D4001B68196B3B685A6813469B001344233BD5
:1032E4001F2202FA03F3DB4319403B6818683B686A
:1032F4005A6813469B001344233B00FA03F27B688D
:103304001B680A431A631BE07B681B68D96A3B6825
:103314005A6813469B001344413B1F2202FA03F3ED
:10332400DB4319403B6818683B685A6813469B00A6
:103334001344413B00FA03F27B681B680A43DA62D8
:103344003B681B68092B1CD97B681B68D9683B68E0
:103354001A6813465B0013441E3B072202FA03F368
:10336400DB4319403B6898683B681A6813465B0066
:1033740013441E3B00FA03F27B681B680A43DA60BD
:1033840019E07B681B6819693B681A6813465B007F
:103394001344072202FA03F3DB4319403B6898689D
:1033A4003B681A6813465B00134400FA03F27B6817
:1033B4001B680A431A613B681B68102B03D03B68E7
:1033C4001B68112B32D17B681B681D4A934225D19F
:1033D4007B681B689B6803F40003002B26D17B6881
:1033E4001B689A687B681B6842F400029A603B6819
:1033F4001B68102B1AD1134B1B68134AA2FB03231F
:103404009A0C13469B0013445B00BB6002E0BB684C
:10341400013BBB60BB68002BF9D107E07B689B6A6A
:1034240043F020027B689A620123FB737B680022CD
:1034340083F82420FB7B18461437BD4680BC7047B4
:10344400002401400800002083DE1B4380B584B0C3
:1034540000AF78600023FB607B681B689B6803F007
:103464000103012B2ED17B681B689A687B681B685B
:1034740022F001029A60FFF7FDFDF8601BE0FFF700
:10348400F9FD0246FB68D31A022B14D97B681B682A
:103494009B6803F00103012B0DD17B689B6A43F009
:1034A40010027B689A627B68DB6A43F001027B68E6
:1034B400DA62012307E07B681B689B6803F0010361
:1034C400012BDCD0002318461037BD4680BD000018
:1034D40080B485B000AF78607B6803F00703FB60BD
:1034E4000C4BDB68BB60BA684FF6FF031340BB604C
:1034F400FB681A02BB68134343F0BF6343F4003311
:10350400BB60044ABB68D36000BF1437BD4680BCAF
:10351400704700BF00ED00E080B400AF044BDB68EF
:103524001B0A03F007031846BD4680BC704700BF62
:1035340000ED00E080B483B000AF0346FB7197F95F
:103544000730002B0BDBFB7903F01F02064997F9C8
:1035540007305B09012000FA02F241F8232000BF82
:103564000C37BD4680BC704700E100E080B483B0F6
:1035740000AF03463960FB7197F90730002B0ADB73
:103584003B68DAB20C4997F907301201D2B20B4406
:1035940083F800230AE03B68DAB20849FB7903F0B8
:1035A4000F03043B1201D2B20B441A7600BF0C374E
:1035B400BD4680BC704700BF00E100E000ED00E0C4
:1035C40080B489B000AFF860B9607A60FB6803F03A
:1035D4000703FB61FB69C3F10703042B28BF042322
:1035E400BB61FB690433062B02D9FB69033B00E092
:1035F40000237B614FF0FF32BB6902FA03F3DA4325
:10360400BB681A407B699A404FF0FF317B6901FA2D
:1036140003F3D9437B680B40134318462437BD4654
:1036240080BC704780B582B000AF78607B68013B96
:10363400B3F1807F01D301230FE00A4A7B68013B89
:1036440053600F214FF0FF30FFF790FF054B00222E
:103654009A60044B07221A60002318460837BD46B7
:1036640080BD00BF10E000E080B582B000AF78609C
:103674007868FFF72DFF00BF0837BD4680BD80B5D1
:1036840086B000AF0346B9607A60FB7300237B61A8
:10369400FFF742FF78617A68B9687869FFF790FFAD
:1036A400024697F90F3011461846FFF75FFF00BF37
:1036B4001837BD4680BD80B582B000AF0346FB71AC
:1036C40097F907301846FFF735FF00BF0837BD46A6
:1036D40080BD80B582B000AF78607868FFF7A2FF44
:1036E400034618460837BD4680BD000080B485B047
:1036F40000AF78600023FB607B68002B01D10123BD
:1037040059E07B681B681A462D4B9A420FD87B6898
:103714001B681A462B4B13442B4AA2FB03231B0999
:103724009A007B681A647B68284ADA630EE07B6837
:103734001B681A46264B1344234AA2FB03231B0986
:103744009A007B681A647B68224ADA637B680222E7
:1037540083F821207B681B681B68FB60FB6823F4EB
:103764007F5323F03003FB607B685A687B689B6857
:103774001A437B68DB681A437B681B691A437B68BE
:103784005B691A437B689B691A437B68DB69134353
:10379400FA681343FB607B681B68FA681A607B68ED
:1037A40000229A637B68012283F821207B6800222F
:1037B40083F82020002318461437BD4680BC704788
:1037C40007040240F8FFFDBFCDCCCCCC0000024082
:1037D400F8FBFDBF0004024080B586B000AFF8607E
:1037E400B9607A603B600023FB75FB6893F8203076
:1037F400012B01D102234BE0FB68012283F8202036
:10380400FB6893F82130DBB2012B3AD1FB6802222A
:1038140083F82120FB6800229A63FB681B681A68FE
:10382400FB681B6822F001021A603B687A68B96879
:10383400F86800F0B1FBFB68DB6A002B08D0FB687A
:103844001B681A68FB681B6842F00E021A600FE0DE
:10385400FB681B681A68FB681B6822F004021A6084
:10386400FB681B681A68FB681B6842F00A021A604E
:10387400FB681B681A68FB681B6842F001021A6047
:1038840005E0FB68002283F820200223FB75FB7D02
:1038940018461837BD4680BD80B485B000AF786047
:1038A4000023FB737B6893F82130DBB2022B08D032
:1038B4007B6804229A637B68002283F8202001231A
:1038C40020E07B681B681A687B681B6822F00E0284
:1038D4001A607B681B681A687B681B6822F0010207
:1038E4001A607B681A6C7B68DB6B012101FA02F2B7
:1038F4005A607B68012283F821207B68002283F8C8
:103904002020FB7B18461437BD4680BC704700005E
:1039140080B584B000AF78600023FB737B6893F8B4
:103924002130DBB2022B05D07B6804229A63012389
:10393400FB73D6E07B681B681A687B681B6822F0FF
:103944000E021A607B681B681A687B681B6822F089
:1039540001021A607B681B681A46644B9A4258D964
:103964007B681B68624A93424FD07B681B68614A3C
:10397400934248D07B681B685F4A934240D07B687F
:103984001B685E4A934238D07B681B685C4A93424A
:1039940030D07B681B685B4A934228D07B681B68E5
:1039A400524A934220D07B681B68574A934219D0ED
:1039B4007B681B68554A934212D07B681B68544A43
:1039C40093420AD07B681B68524A934202D14FF457
:1039D40080531BE04FF4803318E04FF4807315E0FC
:1039E400102313E0012311E04FF080730EE04FF435
:1039F40080130BE04FF4803308E04FF4805305E06C
:103A04004FF4807302E0102300E00123424A536024
:103A140057E07B681B68364A93424FD07B681B682B
:103A2400344A934248D07B681B68334A934240D05F
:103A34007B681B68314A934238D07B681B68304AE4
:103A4400934230D07B681B682E4A934228D07B680F
:103A54001B68264A934220D07B681B682A4A9342FB
:103A640019D07B681B68294A934212D07B681B6873
:103A7400274A93420AD07B681B68264A934202D1A4
:103A84004FF480531BE04FF4803318E04FF48073FD
:103A940015E0102313E0012311E04FF080730EE0D2
:103AA4004FF480130BE04FF4803308E04FF480535D
:103AB40005E04FF4807302E0102300E00123174A6D
:103AC40053607B68012283F821207B68002283F8FD
:103AD40020207B685B6B002B03D07B685B6B786872
:103AE4009847FB7B18461037BD4680BD80000240D6
:103AF400080002401C000240300002404400024022
:103B0400580002406C000240080402401C040240B9
:103B14003004024044040240000402400000024019
:103B240080B584B000AF78607B68DB6B1B68FB609A
:103B34007B681B681B68BB607B681B6C04229A4013
:103B4400FB681340002B00F0F180BB6803F0040312
:103B5400002B00F0EB807B681B681B6803F02003DC
:103B6400002B07D17B681B681A687B681B6822F0EE
:103B740004021A607B681B681A465F4B9A4258D944
:103B84007B681B685D4A93424FD07B681B685C4A24
:103B9400934248D07B681B685A4A934240D07B6862
:103BA4001B68594A934238D07B681B68574A934232
:103BB40030D07B681B68564A934228D07B681B68C8
:103BC4004D4A934220D07B681B68524A934219D0D5
:103BD4007B681B68504A934212D07B681B684F4A2B
:103BE40093420AD07B681B684D4A934202D14FF43A
:103BF40080431BE04FF4802318E04FF4806315E00A
:103C0400402313E0042311E04FF080630EE04FF4EF
:103C140080030BE04FF4802308E04FF4804305E079
:103C24004FF4806302E0402300E004233D4A5360E4
:103C340057E07B681B68314A93424FD07B681B680E
:103C44002F4A934248D07B681B682E4A934240D047
:103C54007B681B682C4A934238D07B681B682B4ACC
:103C6400934230D07B681B68294A934228D07B68F2
:103C74001B68214A934220D07B681B68254A9342E3
:103C840019D07B681B68244A934212D07B681B6856
:103C9400224A93420AD07B681B68214A934202D18C
:103CA4004FF480431BE04FF4802318E04FF480630B
:103CB40015E0402313E0042311E04FF080630EE08D
:103CC4004FF480030BE04FF4802308E04FF480436B
:103CD40005E04FF4806302E0402300E00423124A2D
:103CE40053607B68DB6A002B00F036817B68DB6AFB
:103CF4007868984730E100BF800002400800024025
:103D04001C000240300002404400024058000240BF
:103D14006C000240080402401C04024030040240CB
:103D24004404024000040240000002407B681B6C13
:103D340002229A40FB681340002B00F0DD80BB6830
:103D440003F00203002B00F0D7807B681B681B681C
:103D540003F02003002B0BD17B681B681A687B6877
:103D64001B6822F00A021A607B68012283F8212072
:103D74007B681B681A467B4B9A4258D97B681B6840
:103D8400794A93424FD07B681B68784A934248D063
:103D94007B681B68764A934240D07B681B68754AEF
:103DA400934238D07B681B68734A934230D07B6857
:103DB4001B68724A934228D07B681B68694A934205
:103DC40020D07B681B686E4A934219D07B681B68BD
:103DD4006C4A934212D07B681B686B4A93420AD0A8
:103DE4007B681B68694A934202D14FF400531BE07D
:103DF4004FF4003318E04FF4007315E0202313E070
:103E0400022311E04FF000730EE04FF400130BE0B7
:103E14004FF4003308E04FF4005305E04FF400730F
:103E240002E0202300E00223594A536057E07B68F4
:103E34001B684D4A93424FD07B681B684B4A9342A0
:103E440048D07B681B684A4A934240D07B681B6811
:103E5400484A934238D07B681B68474A934230D023
:103E64007B681B68454A934228D07B681B683D4A9F
:103E7400934220D07B681B68414A934219D07B68E7
:103E84001B68404A934212D07B681B683E4A9342A7
:103E94000AD07B681B683D4A934202D14FF4005319
:103EA4001BE04FF4003318E04FF4007315E02023B7
:103EB40013E0022311E04FF000730EE04FF40013FF
:103EC4000BE04FF4003308E04FF4005305E04FF4E7
:103ED400007302E0202300E002232E4A53607B6833
:103EE400002283F820207B689B6A002B34D07B68F7
:103EF4009B6A786898472FE07B681B6C08229A407D
:103F0400FB681340002B28D0BB6803F00803002B88
:103F140023D07B681B681A687B681B6822F00E023A
:103F24001A607B681A6C7B68DB6B012101FA02F270
:103F34005A607B6801229A637B68012283F82120FE
:103F44007B68002283F820207B681B6B002B04D045
:103F54007B681B6B7868984700BF00BF1037BD466D
:103F640080BD00BF80000240080002401C000240E7
:103F74003000024044000240580002406C000240FD
:103F8400080402401C04024030040240440402407D
:103F9400000402400000024080B485B000AFF86025
:103FA400B9607A603B60FB681A6CFB68DB6B0121CB
:103FB40001FA02F25A60FB681B683A685A60FB68AF
:103FC4005B68102B08D1FB681B687A689A60FB68F1
:103FD4001B68BA68DA6007E0FB681B68BA689A6015
:103FE400FB681B687A68DA6000BF1437BD4680BC82
:103FF4007047000080B48BB000AF78603960002354
:104004007B6200233B6279E101227B6A02FA03F3BB
:10401400FB613B681B68FA691340BB61BA69FB69C1
:104024009A4240F068813B685B68964A93425ED04E
:10403400944A934275D8944A934258D0924A9342F0
:104044006FD8924A934252D0904A934269D8904A88
:1040540093424CD08E4A934263D88E4A934246D0C0
:104064008C4A93425DD8122B2AD8122B59D801A21C
:1040740052F823F0F3400008CD400008DF40000868
:104084002141000827410008274100082741000872
:10409400274100082741000827410008274100085C
:1040A400274100082741000827410008274100084C
:1040B4002741000827410008D5400008E9400008CE
:1040C400754A934213D02CE03B68DB683B6229E0DD
:1040D4003B68DB6804333B6224E03B68DB680833FD
:1040E4003B621FE03B68DB680C333B621AE03B68D1
:1040F4009B68002B02D104233B6213E03B689B685E
:10410400012B05D108233B627B68FA691A6109E037
:1041140008233B627B68FA695A6103E000233B622F
:1041240000E000BFBB69FF2B01D87B6801E07B681E
:1041340004337B61BB69FF2B02D87B6A9B0002E0DE
:104144007B6A083B9B003B617B691A680F213B69D2
:1041540001FA03F3DB431A40396A3B6901FA03F3BA
:104164001A437B691A603B685B6803F08053002B39
:1041740000F0C180494B9B69484A43F001039361B5
:10418400464B9B6903F00103BB60BB68444A7B6AEE
:104194009B08023352F82330FB607B6A03F003036D
:1041A4009B000F2202FA03F3DB43FA681340FB601F
:1041B4007B683C4A93421FD07B683B4A934219D0A8
:1041C4007B683A4A934213D07B68394A93420DD0B4
:1041D4007B68384A934207D07B68374A934201D1BF
:1041E40005230AE0062308E0042306E0032304E091
:1041F400022302E0012300E000237A6A02F00302B2
:1042040092009340FA681343FB6025497B6A9B083C
:104214000233FA6841F823203B685B6803F4801397
:10422400002B06D0254B9A682449BB6913438B6045
:1042340006E0224B9A68BB69DB43204913408B603C
:104244003B685B6803F40013002B06D01B4BDA6851
:104254001A49BB691343CB6006E0184BDA68BB69A3
:10426400DB4316491340CB603B685B6803F40033BF
:10427400002B25D0114B5A681049BB6913434B607E
:1042840025E000BF000032100000311000002210B1
:104294000000211000001210000011100010024054
:1042A4000000014000080140000C014000100140E2
:1042B4000014014000180140001C014000040140AA
:1042C400154B5A68BB69DB43134913404B603B6889
:1042D4005B6803F48033002B06D00F4B1A680E4939
:1042E400BB6913430B6006E00B4B1A68BB69DB43E5
:1042F400094913400B607B6A01337B623B681A688F
:104304007B6A22FA03F3002B7FF47EAE00BF00BF6A
:104314002C37BD4680BC70470004014080B485B092
:1043240000AF78600B467B807B689A687B8813407B
:10433400002B02D00123FB7301E00023FB73FB7B02
:1043440018461437BD4680BC704780B483B000AFB4
:1043540078600B467B8013467B707B78002B03D000
:104364007A887B681A6103E07B881A047B681A6187
:1043740000BF0C37BD4680BC7047000080B584B0D8
:1043840000AF78607B68002B01D101232BE17B68AF
:1043940093F83D30DBB2002B06D17B68002283F812
:1043A4003C207868FDF7D4FD7B68242283F83D2007
:1043B4007B681B681A687B681B6822F001021A601C
:1043C4007B681B681A687B681B6842F400421A60A9
:1043D4007B681B681A687B681B6822F400421A60B9
:1043E40000F0DCFCF8607B685B68814A934207D884
:1043F400FB68804A934294BF01230023DBB206E0AA
:10440400FB687D4A934294BF01230023DBB2002B57
:1044140001D00123E7E0FB68784AA2FB03239B0C4D
:10442400BB607B681B685B6823F03F017B681B688B
:10443400BA680A435A607B681B681B6A23F03F0111
:104444007B685B686A4A934202D8BB68013309E01F
:10445400BB684FF4967202FB03F3694AA2FB032381
:104464009B0901337A6812680B4313627B681B68EB
:10447400DB6923F44F4222F0FF027B685B685C49EE
:104484008B4219D8FB68591E7B685B685B00B1FBE3
:10449400F3F3591C40F6FC730B40002B0AD0FB6865
:1044A400591E7B685B685B00B1FBF3F30133C3F314
:1044B4000B0351E004234FE07B689B68002B11D170
:1044C400FB68581E7B6859680B465B000B44B0FBC5
:1044D400F3F30133C3F30B03002B0CBF01230023BD
:1044E400DBB212E0FB68581E7B6859680B469B00E0
:1044F4000B4499000B44B0FBF3F30133C3F30B03F8
:10450400002B0CBF01230023DBB2002B01D00123BD
:1045140022E07B689B68002B0ED1FB68581E7B68E9
:1045240059680B465B000B44B0FBF3F30133C3F350
:104534000B0343F400430FE0FB68581E7B68596883
:104544000B469B000B4499000B44B0FBF3F301337F
:10455400C3F30B0343F44043796809681343CB6105
:104564007B681B681B6823F0C0017B68DA697B6881
:104574001B6A1A437B681B680A431A607B681B68C2
:104584009B6823F4034323F0FF037A6811697A6874
:10459400D26811437A6812680B4393607B681B6886
:1045A400DB6823F0FF017B685A697B689B691A43C7
:1045B4007B681B680A43DA607B681B681A687B683F
:1045C4001B6842F001021A607B6800221A647B684F
:1045D400202283F83D207B6800221A637B68002236
:1045E40083F83E20002318461037BD4680BD00BF27
:1045F400A08601007F841E00FF083D0083DE1B436C
:10460400D34D621080B586B000AF78607B68002B14
:1046140001D1012372E27B681B6803F00103002BC4
:1046240000F08780924B5B6803F00C03042B0CD0E2
:104634008F4B5B6803F00C03082B12D18C4B5B6827
:1046440003F48033B3F5803F0BD1894B1B6803F42B
:104654000033002B6CD07B685B68002B68D101238E
:104664004CE27B685B68B3F5803F06D1804B1B68E6
:104674007F4A43F4803313602EE07B685B68002B31
:104684000CD17B4B1B687A4A23F480331360784B3C
:104694001B68774A23F4802313601DE07B685B6802
:1046A400B3F5A02F0CD1724B1B68714A43F48023DD
:1046B40013606F4B1B686E4A43F4803313600BE046
:1046C4006B4B1B686A4A23F480331360684B1B6886
:1046D400674A23F4802313607B685B68002B13D044
:1046E400FEF7C8FC386108E0FEF7C4FC02463B69EB
:1046F400D31A642B01D9032300E25D4B1B6803F436
:104704000033002BF0D014E0FEF7B4FC386108E06D
:10471400FEF7B0FC02463B69D31A642B01D903238C
:10472400ECE1534B1B6803F40033002BF0D100E0A1
:1047340000BF7B681B6803F00203002B63D04C4B63
:104744005B6803F00C03002B0BD0494B5B6803F050
:104754000C03082B1CD1464B5B6803F48033002BFD
:1047640016D1434B1B6803F00203002B05D07B6872
:104774001B69012B01D00123C0E13D4B1B6823F0D1
:10478400F8027B685B69DB00394913430B603AE04C
:104794007B681B69002B20D0364B01221A60FEF780
:1047A40069FC386108E0FEF765FC02463B69D31AF0
:1047B400022B01D90323A1E12D4B1B6803F0020353
:1047C400002BF0D02A4B1B6823F0F8027B685B694E
:1047D400DB00274913430B6015E0264B00221A60C7
:1047E400FEF748FC386108E0FEF744FC02463B69EA
:1047F400D31A022B01D9032380E11D4B1B6803F05C
:104804000203002BF0D17B681B6803F00803002B24
:104814003AD07B689B69002B19D0174B01221A6090
:10482400FEF728FC386108E0FEF724FC02463B69E9
:10483400D31A022B01D9032360E10D4B5B6A03F009
:104844000203002BF0D0012000F0D0FA1CE00A4B48
:1048540000221A60FEF70EFC38610FE0FEF70AFC36
:1048640002463B69D31A022B08D9032346E100BF51
:10487400001002400000424280044242924B5B6AB4
:1048840003F00203002BE9D17B681B6803F00403E7
:10489400002B00F0A6800023FB758B4BDB6903F033
:1048A4008053002B0DD1884BDB69874A43F080533A
:1048B400D361854BDB6903F08053BB60BB68012384
:1048C400FB75824B1B6803F48073002B18D17F4B5C
:1048D4001B687E4A43F480731360FEF7CBFB386198
:1048E40008E0FEF7C7FB02463B69D31A642B01D9E3
:1048F400032303E1754B1B6803F48073002BF0D092
:104904007B68DB68012B06D16F4B1B6A6E4A43F050
:10491400010313622DE07B68DB68002B0CD16A4B2A
:104924001B6A694A23F001031362674B1B6A664AD8
:1049340023F0040313621CE07B68DB68052B0CD1B5
:10494400614B1B6A604A43F0040313625E4B1B6AAB
:104954005D4A43F0010313620BE05B4B1B6A5A4A46
:1049640023F001031362584B1B6A574A23F00403D4
:1049740013627B68DB68002B15D0FEF77BFB386184
:104984000AE0FEF777FB02463B69D31A41F288320C
:10499400934201D90323B1E04B4B1B6A03F002039A
:1049A400002BEED014E0FEF765FB38610AE0FEF759
:1049B40061FB02463B69D31A41F28832934201D922
:1049C40003239BE0404B1B6A03F00203002BEED150
:1049D400FB7D012B05D13C4BDB693B4A23F0805323
:1049E400D3617B68DB69002B00F08780364B5B6802
:1049F40003F00C03082B61D07B68DB69022B46D1E2
:104A0400334B00221A60FEF735FB386108E0FEF7ED
:104A140031FB02463B69D31A022B01D903236DE013
:104A2400294B1B6803F00073002BF0D17B681B6AD1
:104A3400B3F5803F08D1244B5B6823F400327B68D4
:104A44009B68214913434B601F4B5B6823F474122A
:104A54007B68196A7B685B6A0B431B4913434B6091
:104A64001B4B01221A60FEF705FB386108E0FEF7D4
:104A740001FB02463B69D31A022B01D903233DE013
:104A8400114B1B6803F00073002BF0D035E0104B82
:104A940000221A60FEF7EEFA386108E0FEF7EAFA3F
:104AA40002463B69D31A022B01D9032326E0064BA5
:104AB4001B6803F00073002BF0D11EE07B68DB69F8
:104AC400012B07D1012319E00010024000700040BF
:104AD400600042420B4B5B68FB60FB6803F480326E
:104AE4007B681B6A9A4206D1FB6803F470127B68E8
:104AF4005B6A9A4201D0012300E00023184618376C
:104B0400BD4680BD0010024080B584B000AF78601F
:104B140039607B68002B01D10123D0E06A4B1B680C
:104B240003F007033A689A4210D9674B1B6823F0D5
:104B3400070265493B6813430B60634B1B6803F032
:104B440007033A689A4201D00123B8E07B681B68E6
:104B540003F00203002B20D07B681B6803F00403DE
:104B6400002B05D0594B5B68584A43F4E06353600B
:104B74007B681B6803F00803002B05D0534B5B686C
:104B8400524A43F460535360504B5B6823F0F00285
:104B94007B689B684D4913434B607B681B6803F03B
:104BA4000103002B40D07B685B68012B07D1474B86
:104BB4001B6803F40033002B15D101237FE07B68CD
:104BC4005B68022B07D1414B1B6803F00073002B79
:104BD40009D1012373E03D4B1B6803F00203002B52
:104BE40001D101236BE0394B5B6823F003027B683E
:104BF4005B68364913434B60FEF73CFAF8600AE001
:104C0400FEF738FA0246FB68D31A41F2883293421F
:104C140001D9032353E02D4B5B6803F00C027B683E
:104C24005B689B009A42EBD1274B1B6803F0070398
:104C34003A689A4210D2244B1B6823F00702224997
:104C44003B6813430B60204B1B6803F007033A686F
:104C54009A4201D0012332E07B681B6803F004030D
:104C6400002B08D0194B5B6823F4E0627B68DB6897
:104C7400164913434B607B681B6803F00803002B41
:104C840009D0124B5B6823F460527B681B69DB001C
:104C94000E4913434B6000F021F802460B4B5B684E
:104CA4001B0903F00F030A49CB5C22FA03F3094AF8
:104CB4001360094B1B681846FEF79AF9002318463F
:104CC4001037BD4680BD00BF0020024000100240E6
:104CD40000A50008080000200C00002080B487B064
:104CE40000AF0023FB600023BB6000237B61002333
:104CF4007B6000233B611E4B5B68FB60FB6803F039
:104D04000C03042B02D0082B03D027E0194B3B6182
:104D140027E0FB689B0C03F00F03174AD35C7B600E
:104D2400FB6803F48033002B10D0114B5B685B0CE1
:104D340003F00103114AD35CBB607B680D4A03FB9B
:104D440002F2BB68B2FBF3F37B6104E07B680C4ABC
:104D540002FB03F37B617B693B6102E0094B3B612E
:104D640000BF3B6918461C37BD4680BC704700BF76
:104D740000100240001BB70018A5000828A5000871
:104D840000093D0000127A0080B400AF024B1B689A
:104D94001846BD4680BC70470800002080B500AFAF
:104DA400FFF7F2FF0246054B5B681B0A03F007039B
:104DB4000349CB5C22FA03F3184680BD001002407D
:104DC40010A5000880B500AFFFF7DEFF0246054BD3
:104DD4005B68DB0A03F007030349CB5C22FA03F3A5
:104DE400184680BD0010024010A5000880B485B0AC
:104DF40000AF78600A4B1B680A4AA2FB03235B0AD4
:104E04007A6802FB03F3FB6000BFFB685A1EFA607A
:104E1400002BF9D100BF00BF1437BD4680BC7047DA
:104E240008000020D34D621080B586B000AF7860D2
:104E340000233B610023FB607B681B6803F00103D4
:104E4400002B7DD00023FB754F4BDB6903F08053AF
:104E5400002B0DD14C4BDB694B4A43F08053D3619B
:104E6400494BDB6903F08053BB60BB680123FB75CE
:104E7400464B1B6803F48073002B18D1434B1B680B
:104E8400424A43F480731360FEF7F4F8386108E093
:104E9400FEF7F0F802463B69D31A642B01D90323C9
:104EA4006DE03A4B1B6803F48073002BF0D0364B53
:104EB4001B6A03F44073FB60FB68002B2ED07B68F5
:104EC4005B6803F44073FA689A4227D02E4B1B6A3E
:104ED40023F44073FB602E4B01221A602C4B0022FA
:104EE4001A60294AFB681362FB6803F00103002B74
:104EF40014D0FEF7BFF838610AE0FEF7BBF80246AB
:104F04003B69D31A41F28832934201D9032336E034
:104F14001D4B1B6A03F00203002BEED01A4B1B6AD5
:104F240023F440727B685B68174913430B62FB7D73
:104F3400012B05D1144BDB69134A23F08053D36151
:104F44007B681B6803F00203002B08D00E4B5B68E0
:104F540023F440427B689B680B4913434B607B6896
:104F64001B6803F01003002B08D0074B5B6823F485
:104F740080027B685B69044913434B600023184635
:104F84001837BD4680BD00BF0010024000700040CD
:104F94004004424280B582B000AF78607B68002B49
:104FA40001D1012341E07B6893F83D30DBB2002B53
:104FB40006D17B68002283F83C207868FDF74EFC1C
:104FC4007B68022283F83D207B681A687B6804337F
:104FD4001946104600F0B4FD7B68012283F8462090
:104FE4007B68012283F83E207B68012283F83F20FE
:104FF4007B68012283F840207B68012283F84120EA
:105004007B68012283F842207B68012283F84320D5
:105014007B68012283F844207B68012283F84520C1
:105024007B68012283F83D20002318460837BD46DB
:1050340080BD000080B485B000AF78607B6893F8D1
:105044003D30DBB2012B01D001234EE07B6802220C
:1050540083F83D207B681B68DA687B681B6842F034
:105064000102DA607B681B68224A934222D07B6883
:105074001B68214A93421DD07B681B68B3F1804FA3
:1050840018D07B681B681D4A934213D07B681B6849
:105094001B4A93420ED07B681B681A4A934209D07C
:1050A4007B681B68184A934204D07B681B68174AC4
:1050B400934211D17B681B689B6803F00703FB6074
:1050C400FB68062B10D07B681B681A687B681B681A
:1050D40042F001021A6007E07B681B681A687B686B
:1050E4001B6842F001021A60002318461437BD46BB
:1050F40080BC7047002C0140003401400004004093
:1051040000080040000C0040004C01400018004022
:1051140080B582B000AF78607B68002B01D1012399
:1051240041E07B6893F83D30DBB2002B06D17B680D
:10513400002283F83C207868FDF7F2FB7B680222AA
:1051440083F83D207B681A687B680433194610464F
:1051540000F0F6FC7B68012283F846207B6801227C
:1051640083F83E207B68012283F83F207B6801227C
:1051740083F840207B68012283F841207B68012268
:1051840083F842207B68012283F843207B68012254
:1051940083F844207B68012283F845207B68012240
:1051A40083F83D20002318460837BD4680BD80B5EE
:1051B40082B000AF78607B68002B01D1012341E00D
:1051C4007B6893F83D30DBB2002B06D17B6800226C
:1051D40083F83C20786800F039F87B68022283F871
:1051E4003D207B681A687B6804331946104600F03A
:1051F400A7FC7B68012283F846207B68012283F8A0
:105204003E207B68012283F83F207B68012283F8DB
:1052140040207B68012283F841207B68012283F8C7
:1052240042207B68012283F843207B68012283F8B3
:1052340044207B68012283F845207B68012283F89F
:105244003D20002318460837BD4680BD80B483B096
:1052540000AF786000BF0C37BD4680BC70470000CB
:1052640080B584B000AF786039600023FB733B687D
:10527400002B04D17B6893F83E30DBB213E03B682B
:10528400042B04D17B6893F83F30DBB20BE03B681E
:10529400082B04D17B6893F84030DBB203E07B68D1
:1052A40093F84130DBB2BB733B68002B04D17B68BD
:1052B40093F84230DBB213E03B68042B04D17B68E3
:1052C40093F84330DBB20BE03B68082B04D17B68D6
:1052D40093F84430DBB203E07B6893F84530DBB2EB
:1052E4007B73BB7B012B02D17B7B012B01D0012380
:1052F400CCE03B68002B04D17B68022283F83E207B
:1053040013E03B68042B04D17B68022283F83F201E
:105314000BE03B68082B04D17B68022283F8402011
:1053240003E07B68022283F841203B68002B04D110
:105334007B68022283F8422013E03B68042B04D1EB
:105344007B68022283F843200BE03B68082B04D1DE
:105354007B68022283F8442003E07B68022283F8FE
:1053640045203B680C2B41D801A252F823F000BF22
:10537400A9530008F1530008F1530008F153000841
:10538400BB530008F1530008F1530008F15300081F
:10539400CD530008F1530008F1530008F1530008FD
:1053A400DF5300087B681B68DA687B681B6842F07F
:1053B4000202DA601DE07B681B68DA687B681B68A0
:1053C40042F00402DA6014E07B681B68DA687B68E8
:1053D4001B6842F00802DA600BE07B681B68DA683D
:1053E4007B681B6842F01002DA6002E00123FB7361
:1053F40000BFFB7B002B48D17B681B680122396806
:10540400184600F0A2FF7B681B68224A934222D010
:105414007B681B68204A93421DD07B681B68B3F1EC
:10542400804F18D07B681B681C4A934213D07B685A
:105434001B681B4A93420ED07B681B68194A93422F
:1054440009D07B681B68184A934204D07B681B68A8
:10545400164A934211D17B681B689B6803F00703CB
:10546400BB60BB68062B10D07B681B681A687B681E
:105474001B6842F001021A6007E07B681B681A6827
:105484007B681B6842F001021A60FB7B18461037E8
:10549400BD4680BD002C01400034014000040040A2
:1054A40000080040000C0040004C0140001800407F
:1054B40080B582B000AF78607B681B681B6903F01D
:1054C4000203022B22D17B681B68DB6803F0020312
:1054D400022B1BD17B681B686FF002021A617B6888
:1054E40001221A777B681B689B6903F00303002B76
:1054F40003D07868FCF7EAFF05E0786800F005FB64
:10550400786800F00BFB7B6800221A777B681B68C5
:105514001B6903F00403042B22D17B681B68DB683E
:1055240003F00403042B1BD17B681B686FF0040297
:105534001A617B6802221A777B681B689B6903F4F3
:105544004073002B03D07868FCF7C0FF05E078684F
:1055540000F0DBFA786800F0E1FA7B6800221A7741
:105564007B681B681B6903F00803082B22D17B6846
:105574001B68DB6803F00803082B1BD17B681B68DE
:105584006FF008021A617B6804221A777B681B6833
:10559400DB6903F00303002B03D07868FCF796FF64
:1055A40005E0786800F0B1FA786800F0B7FA7B6833
:1055B40000221A777B681B681B6903F01003102B09
:1055C40022D17B681B68DB6803F01003102B1BD10E
:1055D4007B681B686FF010021A617B6808221A77D7
:1055E4007B681B68DB6903F44073002B03D0786885
:1055F400FCF76CFF05E0786800F087FA786800F043
:105604008DFA7B6800221A777B681B681B6903F09C
:105614000103012B0ED17B681B68DB6803F00103D7
:10562400012B07D17B681B686FF001021A6178684F
:10563400FCF7EAFA7B681B681B6903F08003802B84
:105644000ED17B681B68DB6803F08003802B07D1D5
:105654007B681B686FF080021A61786800F01DFF98
:105664007B681B681B6903F04003402B0ED17B68E9
:105674001B68DB6803F04003402B07D17B681B6881
:105684006FF040021A61786800F051FA7B681B6879
:105694001B6903F02003202B0ED17B681B68DB6899
:1056A40003F02003202B07D17B681B686FF02002D6
:1056B4001A61786800F0E8FE00BF0837BD4680BD77
:1056C40080B586B000AFF860B9607A600023FB75DE
:1056D400FB6893F83C30012B01D1022388E0FB687E
:1056E400012283F83C207B68002B1BD1FB681868DF
:1056F400BB681968BB685A68BB68DB6800F06AFC61
:10570400FB681B689A69FB681B6822F00C029A61AB
:10571400FB681B689969BB689A68FB681B680A4345
:105724009A6160E07B68042B1CD1FB681868BB6835
:105734001968BB685A68BB68DB6800F0EBFCFB685F
:105744001B689A69FB681B6822F440629A61FB68D3
:105754001B689969BB689B681A02FB681B680A434B
:105764009A6140E07B68082B1BD1FB681868BB6812
:105774001968BB685A68BB68DB6800F036FDFB68D3
:105784001B68DA69FB681B6822F00C02DA61FB68AB
:105794001B68D969BB689A68FB681B680A43DA61AD
:1057A40021E07B680C2B1CD1FB681868BB68196866
:1057B400BB685A68BB68DB6800F052FDFB681B6875
:1057C400DA69FB681B6822F44062DA61FB681B68D3
:1057D400D969BB689B681A02FB681B680A43DA61D3
:1057E40001E00123FB75FB68002283F83C20FB7D6C
:1057F40018461837BD4680BD80B586B000AFF86046
:10580400B9607A600023FB75FB6893F83C30012B88
:1058140001D10223AEE0FB68012283F83C207B68BF
:105824000C2B00F29F8001A252F823F06558000867
:10583400695900086959000869590008A558000801
:10584400695900086959000869590008E7580008AF
:10585400695900086959000869590008275900085E
:10586400FB681B68B968184600F008FAFB681B68F7
:105874009A69FB681B6842F008029A61FB681B681E
:105884009A69FB681B6822F004029A61FB681B6832
:105894009969BB681A69FB681B680A439A6164E0EA
:1058A400FB681B68B968184600F058FAFB681B6867
:1058B4009A69FB681B6842F400629A61FB681B6882
:1058C4009A69FB681B6822F480629A61FB681B6812
:1058D4009969BB681B691A02FB681B680A439A61D1
:1058E40043E0FB681B68B968184600F0ABFAFB6834
:1058F4001B68DA69FB681B6842F00802DA61FB681E
:105904001B68DA69FB681B6822F00402DA61FB6831
:105914001B68D969BB681A69FB681B680A43DA61AA
:1059240023E0FB681B68B968184600F0FFFAFB68BF
:105934001B68DA69FB681B6842F40062DA61FB6881
:105944001B68DA69FB681B6822F48062DA61FB6811
:105954001B68D969BB681B691A02FB681B680A4388
:10596400DA6102E00123FB7500BFFB68002283F8C3
:105974003C20FB7D18461837BD4680BD80B584B0F9
:1059840000AF786039600023FB737B6893F83C3088
:10599400012B01D10223B4E07B68012283F83C206F
:1059A4007B68022283F83D207B681B689B68BB6090
:1059B400BB6823F07703BB60BB6823F47F43BB6001
:1059C4007B681B68BA689A603B681B68B3F5005F24
:1059D4003ED0B3F5005F00F28780B3F5805F00F03E
:1059E4008680B3F5805F7FD8702B1AD0702B7BD85C
:1059F400602B50D0602B77D8502B3CD0502B73D8D1
:105A0400402B58D0402B6FD8302B64D0302B6BD820
:105A1400202B60D0202B67D8002B5CD0102B5AD0C1
:105A240062E07B6818683B6899683B685A683B6821
:105A3400DB6800F06BFC7B681B689B68BB60BB6821
:105A440043F07703BB607B681B68BA689A604FE0D9
:105A54007B6818683B6899683B685A683B68DB68F0
:105A640000F054FC7B681B689A687B681B6842F4EE
:105A740080429A603CE07B6818683B6859683B68E0
:105A8400DB681A4600F018FB7B681B685021184637
:105A940000F022FC2CE07B6818683B6859683B687E
:105AA400DB681A4600F072FB7B681B6860211846AD
:105AB40000F012FC1CE07B6818683B6859683B687E
:105AC400DB681A4600F0F8FA7B681B684021184628
